S02800005069657277737A792070726F6772616D206E61204156522041544D45474133322E737265634B
S11300000C942A000C9434000C9434000C943400A6
S11300100C9434000C9434000C9434000C9434008C
S11300200C9434000C9434000C9434000C9434007C
S11300300C9434000C9434000C9434000C9434006C
S11300400C9434000C9434000C9434000C9434005C
S11300500C94340011241FBECFE5D8E0DEBFCDBF21
S11300600E9448000C9462000C94000023B32823DF
S113007069F422E333EB92E0215030409040E1F701
S113008000C000C093B3982381E009F080E0089594
S1130090A79AAF9A84B38F7884BB85B3806785BBF6
S11300A080E40E9436008111AF9880E20E943600FD
S11300B08111AF9A80E10E943600882389F385B3C9
S10B00C08058EDCFF894FFCF46
S9030000FC
