S00B00004646502E737265633D
S1130000BAC00000D4C00000D2C00000D0C00000BC
S1130010CEC00000CCC00000CAC00000C8C00000B0
S1130020C6C00000C4C00000C2C00000C0C00000C0
S1130030BEC00000BCC00000BAC00000B8C00000D0
S1130040B6C00000B4C00000B2C00000B0C00000E0
S1130050AEC00000ACC00000AAC00000A8C00000F0
S1130060A6C00000A4C000006E616E00696E660048
S113007000407A10F35A00A0724E18090010A5D45B
S1130080E80000E87648170000E40B54020000CAB8
S11300909A3B000000E1F5050000809698000000FE
S11300A040420F000000A08601000000102700005D
S11300B00000E803000000006400000000000A00E3
S11300C0000000000100000000002C76D888DC67E6
S11300D04F0823DFC1DFAE59E1B1B796E5E3E4533E
S11300E0C63AE651997696E8E6C28426EB898C9B5B
S11300F062ED407C6FFCEFBC9C9F40F2BAA56FA5FB
S1130100F490055A2AF75C936B6CF9676DC11BFC7C
S1130110E0E40D47FEF520E6B500D0ED902E030097
S1130120943577050080841E080000204E0A0000E4
S113013000C80C333333330F986E12831141EF8DA3
S11301402114893BE65516CFFEE6DB18D1844B38E3
S11301501BF77C1D901DA4BBE424203284725E2214
S11301608100C9F124ECA1E53D276364696E6F70D9
S1130170737578585B0011241FBECFEFD4E0DEBF47
S1130180CDBF11E0A0E0B1E0E6E2F3E102C00590EA
S11301900D92A430B107D9F721E0A4E0B1E001C089
S11301A01D92A630B207E1F703D00C94910928CF31
S11301B0CF93DF93CDB7DEB764970FB6F894DEBF65
S11301C00FBECDBF809105018F93809104018F9361
S11301D080E091E09F938F93CE0101969F938F933C
S11301E01ED50091040110910501012E000C220B73
S11301F0330B40E050E062E070E09ED39093050141
S1130200809304010F900F900F900F900F900F9018
S1130210FFCFA3E1B0E0EEE0F1E057C37C011B01A6
S11302206A01FC0117821682838181FF49C3BE01E2
S11302306F5F7F4F4B01F7019381F10193FD85912E
S113024093FF81911F01882309F436C3853239F461
S113025093FD859193FF81911F01853231F4B7019C
S113026090E0ABD456016501E6CF10E0512C20E0BC
S11302702032A0F48B3269F030F4803259F08332AA
S113028069F420612CC08D3239F0803339F4216057
S113029026C02260246023C0286021C027FD27C017
S11302A030ED380F3A3078F426FF06C0FAE01F9F8D
S11302B0300D1124132F13C06AE0569E300D112403
S11302C0532E20620CC08E3221F426FDF5C2206428
S11302D006C08C3611F4206802C0883641F4F1015E
S11302E093FD859193FF81911F018111C1CF9BEBF8
S11302F0980F933018F42061805E06C09BE9980F34
S1130300933008F09AC12F7E26FF16E02F73722EC9
S1130310853621F4F22FF0647F2E08C0863621F44E
S1130320622F6068762E02C01111115077FE07C04B
S11303301C3348F444244394410E27E00BC0183086
S113034030F4212F06C027E04CE3442E03C027E0FD
S113035017E0412C560174E0A70EB11CF601608130
S1130360718182819381042DA40139D36C010981A7
S113037000FF02C003FF06C071FC07C072FC08C086
S1130380612C08C03DE2632E05C02BE2622E02C040
S113039090E2692E802F8C7081F1662011F084E048
S11303A001C083E0851510F0512C0AC0581A73FC63
S11303B007C0B70180E290E000D45A94D1F7F4CF9B
S11303C0662021F0B701862D90E0F7D303FD03C02A
S11303D00CE610E002C008E610E0F72DF0717F2E65
S11303E0F8018491882309F45EC271108052B70128
S11303F090E0E3D30F5F1F4FF3CF77FE0FC04C0C99
S113040004FF04C08A81813309F44A94141474F5F6
S1130410F8E0F41578F588E0482E2CC076FC2AC064
S1130420812F90E08C159D059CF06CEFC6166FEF44
S1130430D60674F0772D7068772E0AC0E2E0F0E0FB
S1130440EC0FFD1FE10FF11D8081803319F4115071
S11304501111F4CF77FE0EC044244394410E812F32
S113046090E0C816D9062CF41C1904C04424439403
S113047001C010E077FE07C01C141D043CF4960173
S11304802F5F3F4F05C025E030E002C021E030E09F
S1130490662011F02F5F3F4F112331F0412F50E0C0
S11304A04F5F5F4F240F351F452D50E0241735074C
S11304B014F4521A01C0512C872D897041F455202F
S11304C031F0B70180E290E078D35A94F8CF6620F7
S11304D021F0B701862D90E070D373FC08C055203D
S11304E031F0B70180E390E068D35A94F8CF77FEF7
S11304F05DC09C2D8D2DD7FE02C090E080E0692E5A
S1130500782E40E050E0C601841991099D878C87BC
S1130510960126193709280D391D812F90E0EE2701
S1130520FF27E81BF90BFF87EE87FFEF6F167F06A7
S113053061F4B7018EE290E02B8B3A8B488B598B98
S11305403CD3598948893A892B89C614D70454F075
S11305506C857D85661577052CF4F901E40FF51F8C
S1130560818101C080E371E0671A71084F5F5F4FBA
S1130570EE85FF856E167F0664F0B70190E02B8B45
S11305803A8B488B598B19D32B893A8948895989D5
S1130590CCCF6C147D0439F49A81963318F49533D6
S11305A011F404FF81E3B70190E045C08A818133EF
S11305B009F00F7EB70190E000D3111105C074FE5D
S11305C016C085E490E015C0B7018EE290E0F5D244
S11305D082E066246394680EF401E80FF11D8081C3
S11305E0B70190E0EAD2115051F3862DF2CF85E69F
S11305F090E0B701E2D2D7FC05C0C114D10439F4AC
S113060004FF05C0D194C194D1088DE201C08BE2EE
S1130610B70190E0D2D280E36AE0C616D1042CF090
S11306208F5FFAE0CF1AD108F7CFB70190E0C5D2B7
S1130630B701C601C096C1D236C1833631F08337C3
S113064079F0833509F054C020C0560172E0A70E3A
S1130650B11CF6018081898301E010E0640113C0BC
S11306605601F2E0AF0EB11CF601C080D18026FF26
S113067003C0612F70E002C06FEF7FEFC6012B8BC8
S113068091D28C012B892F7714C05601F2E0AF0E62
S1130690B11CF601C080D18026FF03C0612F70E039
S11306A002C06FEF7FEFC6012B8B71D28C012B89B7
S11306B02068722E23FD18C0852D90E008171907B5
S11306C098F4B70180E290E078D25A94F5CFF6011D
S11306D077FC859177FE81916F01B70190E06DD22F
S11306E051105A94015011090115110581F7DBC00D
S11306F0843611F0893649F5560127FF09C0F4E024
S1130700AF0EB11CF60160817181828193810AC0B0
S1130710F2E0AF0EB11CF60160817181882777FD8C
S11307208095982F022F0F7697FF08C0909580959B
S1130730709561957F4F8F4F9F4F00682AE030E09E
S1130740A4018CD2C82EC8183DC0022F853721F4CD
S11307500F7E2AE030E01DC0097F8F3691F018F437
S1130760883559F0A9C0803719F0883711F0A4C032
S1130770006104FF09C0046007C024FF08C00660CC
S113078006C028E030E005C020E130E002C020E1EE
S113079032E0560107FF09C0F4E0AF0EB11CF601C8
S11307A0608171818281938108C0F2E0AF0EB11C37
S11307B0F6016081718180E090E0A4014FD2C82EDF
S11307C0C8180F7706FF0BC0202F2E7FC11650F4D8
S11307D004FF0AC002FD08C0202F2E7E05C0DC2CB9
S11307E0202F03C0DC2C01C0D12E24FF0DC0FE013C
S11307F0EC0DF11D8081803311F4297E09C022FFA4
S113080006C0D394D39404C0822F867809F0D3947D
S113081023FD12C020FF06C01C2DD51418F4150D9D
S11308201D19D52CD51460F4B70180E290E02B8B10
S1130830C4D1D3942B89F6CFD51410F45D1801C01C
S1130840512C24FF11C0B70180E390E02B8BB5D16C
S11308502B8922FF16C021FF03C088E590E002C067
S113086088E790E0B7010CC0822F867851F021FD13
S113087002C080E201C08BE227FD8DE2B70190E067
S11308809CD1C11630F4B70180E390E096D11150A9
S1130890F8CFCA94F401EC0DF11D8081B70190E00A
S11308A08CD1C110F6CF552009F4DDCCB70180E21C
S11308B090E083D15A94F7CFF7018681978102C0E3
S11308C08FEF9FEF6396E2E11CC02F923F924F920D
S11308D05F926F927F928F929F92AF92BF92CF92CC
S11308E0DF92EF92FF920F931F93CF93DF93CDB7D5
S11308F0DEB7CA1BDB0B0FB6F894DEBF0FBECDBF4D
S113090009942A88398848885F846E847D848C841D
S11309109B84AA84B984C884DF80EE80FD800C8126
S11309201B81AA81B981CE0FD11D0FB6F894DEBF09
S11309300FBECDBFED010895E89414D0772312F4CF
S1130940A01BB10B37FF02C0A41BB50B000C881F02
S1130950991FAA1FBB1F000C811D911DA11DB11D54
S11309600895689488279927049FD001149FB00D97
S1130970811D059FB00D811D991F16F4B7FD0196C9
S1130980BF93069F800D911DAA0B159F800D911D8D
S1130990A040249F800D911DA040A195079F900D1C
S11309A0A11DBB0B169F900DA11DB040259F900D5E
S11309B0A11DB040349F900DA11DB040B195179F6B
S11309C0A00DB11D269FA00DB11D359FA00DB11D19
S11309D0279FB00D369FB00D0F9011240895283035
S11309E008F027E03327DA01990F311D87FD916064
S11309F000966105710539F432602E5F3D9330E352
S1130A002A95E1F708959F3F30F08038710561051C
S1130A1009F03C5F3C5F3D93913008F08068911D84
S1130A20DF93CF931F930F93FF92EF92192F987F29
S1130A309695E92F96959695E90FFF27E653FF4F74
S1130A4099273327EE24FF24A701E7010590089492
S1130A50079428F4360FE71EF81E491F511D660F30
S1130A60771F881F991F0694A1F70590079428F40F
S1130A70E70EF81E491F561FC11D770F881F991FC7
S1130A80661F0694A1F70590079428F4F80E491FF1
S1130A90561FC71FD11D880F991F661F771F069405
S1130AA0A1F70590079420F4490F561FC71FD81FBC
S1130AB0990F661F771F881F0694A9F784911095D4
S1130AC0177041F0D695C79557954795F794E794D5
S1130AD01A95C1F7E0E7F0E0689415901591359107
S1130AE06591959105907FE27395E118F10A430BA6
S1130AF0560BC90BD009C0F7E10CF11E431F561F5A
S1130B00C91FD01D7EF4703311F48A95E6CFE894A2
S1130B10015030F0080F0AF40027021708F4202FC0
S1130B202395022F7A3328F079E37D932A95E9F708
S1130B3010C07D932A9589F6069497956795379505
S1130B4017951794E118F10A430B560BC90BD009FA
S1130B5098F023957E9173957A3308F070E37C9333
S1130B602013B8F77E9170617D9330F0839571E323
S1130B707D9370E32A95E1F71124EF90FF900F9194
S1130B801F91CF91DF91992787FD90950895FC01DE
S1130B900590615070400110D8F7809590958E0FA4
S1130BA09F1F0895FC016150704001900110D8F717
S1130BB0809590958E0F9F1F08950F931F93CF9349
S1130BC0DF93182F092FEB018B8181FD03C08FEF79
S1130BD09FEF20C082FF10C04E815F812C813D8138
S1130BE0421753077CF4E881F9819F012F5F3F4F3F
S1130BF039832883108306C0E885F985812F0995F8
S1130C00892B29F72E813F812F5F3F4F3F832E830E
S1130C10812F902FDF91CF911F910F910895AEE016
S1130C20B0E0E4E1F6E05FCE0D891E8986E08C83B6
S1130C301A8309838FEF9FE79E838D83AE01475EFE
S1130C405F4F6F89788DCE010196E3DAEF81F885E5
S1130C50E00FF11F10822E96E4E061CEFA01AA277C
S1130C60283051F1203181F1E8946F936E7F6E5FEB
S1130C707F4F8F4F9F4FAF4FB1E03ED0B4E03CD099
S1130C80670F781F891F9A1FA11D680F791F8A1F7C
S1130C90911DA11D6A0F711D811D911DA11D20D0E3
S1130CA009F468943F912AE0269F11243019305D9D
S1130CB03193DEF6CF010895462F4770405D41938E
S1130CC0B3E00FD0C9F7F6CF462F4F70405D4A33DB
S1130CD018F0495D31FD4052419302D0A9F7EACFA3
S1130CE0B4E0A6959795879577956795BA95C9F7D2
S1130CF000976105710508959B01AC010A2E0694C5
S1130D005795479537952795BA95C9F7620F731F7D
S1130D10841F951FA01D089520FD09C0FC0123FD1B
S1130D2005C022FF02C07383628351834083089508
S1130D3044FD10C046FD10C0DB01FC01AA0FBB1F1F
S1130D40EE1FFF1F1094D1F76A0F7B1F8E1F9F1F8A
S1130D5031E003C033E001C034E0660F771F881F21
S1130D60991F3150D1F7620F711D811D911D089596
S1130D700F931F93CF93DF938C01C80178D2EC01BA
S1130D8097FD06C061D2892BC1F7B801CE01ADD25F
S1130D90CE01DF91CF911F910F9108958F929F9271
S1130DA0AF92CF92DF92EF92FF920F931F93CF9364
S1130DB0DF93EC01A62E4A01022F59D2AC0155272C
S1130DC04B32510521F04D32510549F40068AA9483
S1130DD011F480E060C0CE014AD297FDFACF102F03
S1130DE01D7F302F3073F1F48033E1F4FF24FA9443
S1130DF0FA0C09F43DC0CE013AD297FD39C0382F20
S1130E003F7D383549F41264AA94AA9489F1CE013D
S1130E102ED297FF07C02CC006FF02C0126001C08B
S1130E201261AF2CC12CD12C760120ED280F283073
S1130E3078F014FF03C0BE0158D217C02A3040F026
S1130E4016FFF9CF2F7D3FEE320F3630A0F7275033
S1130E50412FC701B6016CDF6B017C011260AA94BB
S1130E6051F0CE0104D297FFE0CF11FD04C0B1CF01
S1130E70C12CD12C760117FF08C0F094E094D094D3
S1130E80C094C11CD11CE11CF11C212FB701A60187
S1130E90C40142DF81E0DF91CF911F910F91FF9058
S1130EA0EF90DF90CF90AF909F908F900895A1E244
S1130EB0B0E0ECE5F7E00ECD5C017A018E010F5F46
S1130EC01F4F680180E2D8011D928A95E9F7F50168
S1130ED0738040E050E0812CB0E0912C81E090E000
S1130EE0F90173FCA59173FEA1918F017A2F9F01E3
S1130EF0A11103C080E090E07BC0AE3519F4411528
S1130F00510559F1E92DF0E0E417F5073CF4AD354E
S1130F1069F1AD3219F4BB2319F103C0B11101C059
S1130F208A2EE72FE695E695E69586010E0F111DAC
S1130F30F801A72FA7708C0102C0000F111FAA95FA
S1130F40E2F7D801B081BA2BB083781559F078153F
S1130F5010F47F5FE6CF7150E4CF9924939403C0DB
S1130F60B1E001C0B0E04F5F5F4FBACFBB2319F0CF
S1130F708E8180628E83911003C09924939415C04E
S1130F80F601CE018196208120952193E817F90777
S1130F90D1F7F3CFE114F10429F0D7018C93F701D1
S1130FA031967F016150F1F0912CC50169A35FD1A5
S1130FB069A197FD15C0282F269526952695F6013B
S1130FC0E20FF11D208130E0AC014770552702C0CB
S1130FD0359527954A95E2F720FDDCCFB50185D1FB
S1130FE0911088CFE114F10411F0D7011C92C801CB
S1130FF0A196EDE08BCC4F925F927F928F929F925D
S1131000AF92BF92CF92DF92EF92FF920F931F9312
S1131010CF93DF931F92CDB7DEB78C012B017A01FA
S1131020FC0117821682A12CF801D380F201D3FCB3
S11310308591D3FE8191382F2F01882309F4EEC0C6
S113104090E0398301D13981892B19F0C80190DEF0
S1131050EBCF353241F4F201D3FC3591D3FE31911B
S11310602F01353259F4C801398301D1398197FDF3
S1131070D3C03817C9F2B80138D1D0C03A3241F4DC
S1131080D3FC3591D3FE31912F01BB24B39401C01D
S1131090B12C712C20ED230F2A3088F4FB2DF26043
S11310A0BF2E672D70E080E090E040E241DE762EB6
S11310B0F201D3FC3591D3FE31912F01EBCFB1FE78
S11310C003C0711003C0AAC077247A94383619F08B
S11310D03C3661F014C0F201D3FC3591D3FE31915A
S11310E02F01383661F4FB2DF860BF2E8B2D846000
S11310F0B82EF201D3FC3591D3FE31912F01332365
S113110009F48CC0632F70E08AE691E03983A4D09F
S11311103981892B09F482C0B0FC07C0F701C08073
S1131120D180C70102967C0102C0C12CD12C3E366D
S113113049F4F8014681578160E070E02B2DC60127
S1131140EBDD72CF333699F4B1FC02C0772473948B
S1131150C8018DD097FD60C0C114D10429F0F601F7
S11311608083C60101966C017A9491F751C03B3596
S113117051F49201A601672DC80199DE2C01009754
S113118009F046C040C0C8013983F2DD398197FDBA
S113119043C03F3651F128F4343619F1393661F140
S11311A028C0333769F03537E1F023C0C114D104C6
S11311B029F0F6018082C60101966C017A9459F0F7
S11311C0C80155D04C0197FD06C03ED0892B71F360
S11311D0B801C4018AD0C114D104D1F0F60110823F
S11311E017C0FB2DF062BF2E07C08B2D8061B82E77
S11311F003C09B2D9064B92E2B2DA601672DC80129
S1131200CDDD811105C0F8018381807329F406C006
S1131210B0FC0ACFA39408CFAA2019F08A2D90E03D
S113122002C08FEF9FEF0F90DF91CF911F910F912D
S1131230FF90EF90DF90CF90BF90AF909F908F90F2
S11312407F905F904F900895911168C0803219F09B
S113125089508550D0F70895FC010590061621F0B9
S11312600020D9F7C00108953197CF010895CF9395
S1131270DF93EC012B8120FF33C026FF0AC02F7BB4
S11312802B838E819F8101969F838E838A8190E038
S113129029C022FF0FC0E881F9818081992787FD49
S11312A09095009719F420622B831AC03196F98324
S11312B0E8830EC0EA85FB85099597FF09C02B8159
S11312C0019611F480E101C080E2822B8B8308C077
S11312D02E813F812F5F3F4F3F832E83992702C08A
S11312E08FEF9FEFDF91CF910895FB01238120FFC2
S11312F012C026FD10C08F3F3FEF930761F0828339
S11313002F7D20642383268137812150310937833F
S11313102683992708958FEF9FEF089599278827AB
S10913200895F894FFCFCC
S10713262572000028
S9030000FC
