S01400004C45442D68617264776172652E73726563C0
S11300000C9434000C943E000C943E000C943E007E
S11300100C943E000C943E000C943E000C943E0064
S11300200C943E000C943E000C943E000C943E0054
S11300300C943E000C943E000C943E000C943E0044
S11300400C943E000C943E000C943E000C943E0034
S11300500C943E000C943E000C943E000C943E0024
S11300600C943E000C943E0011241FBECFEFD8E048
S1130070DEBFCDBF0E945B000C9460000C940000B6
S1130080E0E8F0E080818065808386EA9FE79093D2
S113009089008093880080E090E890938B0080939F
S11300A08A0084E08093810080E88093820084B198
S11300B0866084B908950E94400080E090E008952D
S10700C0F894FFCFDE
S9030000FC
