S00E00006173736572742E7372656384
S11300000C9434000C943E000C943E000C943E007E
S11300100C943E000C943E000C943E000C943E0064
S11300200C943E000C943E000C943E000C943E0054
S11300300C943E000C943E000C943E000C943E0044
S11300400C943E000C943E000C943E000C943E0034
S11300500C943E000C943E000C943E000C943E0024
S11300600C943E000C943E0011241FBECFEFD8E048
S1130070DEBFCDBF0E9440000C9450000C940000E1
S1130080CF93DF9300D0CDB7DEB78AE090E09A83B8
S113009089830E944B0081E090E0F8940C94500016
S10700A0F894FFCFFE
S9030000FC
