:100000000C942A000C9434000C9434000C943400AA
:100010000C9434000C9434000C9434000C94340090
:100020000C9434000C9434000C9434000C94340080
:100030000C9434000C9434000C9434000C94340070
:100040000C9434000C9434000C9434000C94340060
:100050000C94340011241FBECFE5D8E0DEBFCDBF25
:100060000E944B000C945D000C9400008FB58065DD
:100070008FBD8EB588608EBD8EB587608EBD8AE0DF
:1000800090E09BBD8ABD83E190E099BD88BD81B3BE
:10009000806381BB08950E9436008E9A969A90E400
:1000A00082B3892782BB2FEF33ED80E321503040AC
:0E00B0008040E1F700C00000F3CFF894FFCFCE
:00000001FF
