:100000000C9434000C9451000C9451000C94510049
:100010000C9451000C9451000C9451000C9451001C
:100020000C9451000C9451000C9451000C9451000C
:100030000C9451000C9451000C9451000C945100FC
:100040000C9451000C9451000C9451000C945100EC
:100050000C9451000C9451000C9451000C945100DC
:100060000C9451000C94510011241FBECFEFD8E026
:10007000DEBFCDBF11E0A0E0B1E0ECEAF9E002C0E4
:1000800005900D92A831B107D9F721E0A8E1B1E0C0
:1000900001C01D92AB31B207E1F70E9410010C9430
:1000A000D4040C9400008091BC0087FFFCCF08951D
:1000B00084EA8093BC000E9453008091B900887F3D
:1000C000883041F08091B900887F803119F081E05B
:1000D000809318010895CF9380FD02C0C8E101C04C
:1000E000C0E48093BB0084E88093BC000E9453006E
:1000F0002091B900287F30E08C2F90E02817390735
:1001000021F084E08093180102C010921801CF9171
:1001100008958093BB0084E88093BC000E94530044
:100120008091B900887F883219F084E080931801AB
:10013000089584EC8093BC000E9453008091B90024
:10014000887F803519F084E0809318018091BB008E
:10015000089584E88093BC000E9453008091B90008
:10016000887F883519F083E0809318018091BB0067
:1001700008959C0140E050E060E071E782E090E08B
:100180000E94C601205131094109510956954795F0
:100190003795279590E02F3F310539F030F09F5F7C
:1001A0003695279536952795F6CF8091B9008370BF
:1001B000892B8093B9002093B800089584E480933C
:1001C000BC0084EF91E00C94B900CF93DF931F92B1
:1001D000CDB7DEB789830E94580089810F90DF91E7
:1001E000CF910C946B008091BC0084FDFCCF0895EE
:1001F000CF93DF93EC018991882319F00E94890045
:10020000FACFDF91CF910C948900CF93C82F8C2F18
:100210000E94E500809118018430C9F3CF910895C0
:10022000CF93DF93CDB7DEB727970FB6F894DEBF35
:100230000FBECDBF2FEF83ED90E321508040904063
:10024000E1F700C000000E94DE008EEB0E94050175
:1002500083E60E94890014E91093BC000E94F30019
:100260008EEB0E94050187E60E94890080E00E94D3
:10027000890080E00E9489001093BC000E94F30076
:100280008EEB0E94050184E70E94890080E091E0E6
:100290000E94F8001093BC000E94F30034E9B32ED2
:1002A00043E1C42E41E0D42E8E010F5F1F4F5CE26C
:1002B000A52E8FEB0E9405010E94990090E090937B
:1002C0001A0180931901E0901901F0901A010E941F
:1002D000A90090E0982F88278E0D9F1D90931A01FA
:1002E00080931901B092BC008EEB0E94050187E655
:1002F0000E94890080E00E94890081E00E948900BC
:10030000B092BC000E94F3008091190190911A01F3
:100310009F938F93DF92CF921F930F930E94FA01C6
:10032000F80101900020E9F73197E01BF10BFF275E
:100330007F0122E0E21AF108E00EF11ECF010197E1
:1003400043E050E0B701800F911F0E94E801F701E0
:10035000A0828EEB0E94050184E70E948900C801FB
:100360000E94F800B092BC000E94F300FFEF21EE63
:1003700084E0F15020408040E1F700C000000F9081
:100380000F900F900F900F900F9093CFA1E21A2E25
:10039000AA1BBB1BFD010DC0AA1FBB1FEE1FFF1F29
:1003A000A217B307E407F50720F0A21BB30BE40B79
:1003B000F50B661F771F881F991F1A9469F76095C0
:1003C0007095809590959B01AC01BD01CF0108957A
:1003D0006817790768F4FB01DC01E40FF51FA40F2F
:1003E000B51F02C002900E9241505040D8F70895B8
:1003F0000C94F903AEE0B0E0E0E0F2E00C94AB0462
:100400000D891E8986E08C831A8309838FEF9FE70D
:100410009E838D83AE01475E5F4F6F89788DCE01DD
:1004200001960E941C02EF81F885E00FF11F1082F7
:100430002E96E4E00C94C704ACE0B0E0E2E2F2E017
:100440000C949D047C016B018A01FC0117821682C9
:10045000838181FFBDC1CE0101964C01F7019381DB
:10046000F60193FD859193FF81916F01882309F433
:10047000ABC1853239F493FD859193FF81916F0172
:10048000853229F4B70190E00E940D04E7CF512C8A
:10049000312C20E02032A0F48B3269F030F480322D
:1004A00059F0833269F420612CC08D3239F08033E9
:1004B00039F4216026C02260246023C0286021C056
:1004C00027FD27C030ED380F3A3078F426FF06C0FC
:1004D000FAE05F9E300D1124532E13C08AE0389E3F
:1004E000300D1124332E20620CC08E3221F426FDF3
:1004F0006BC1206406C08C3611F4206802C08836B7
:1005000041F4F60193FD859193FF81916F01811173
:10051000C1CF982F9F7D9554933028F40C5F1F4FC7
:10052000FFE3F9830DC0833631F0833771F08335F3
:1005300009F05BC022C0F801808189830E5F1F4FE4
:1005400044244394512C540115C03801F2E06F0E3D
:10055000711CF801A080B18026FF03C0652D70E0FA
:1005600002C06FEF7FEFC5012C870E9402042C01AF
:1005700083012C852F77222E17C03801F2E06F0EF1
:10058000711CF801A080B18026FF03C0652D70E0CA
:1005900002C06FEF7FEFC5012C870E94EE032C0194
:1005A0002C852068222E830123FC1BC0832D90E024
:1005B00048165906B0F4B70180E290E00E940D049D
:1005C0003A94F4CFF50127FC859127FE81915F01D4
:1005D000B70190E00E940D0431103A94F1E04F1AF7
:1005E00051084114510471F7E5C0843611F0893681
:1005F00039F5F80127FF07C06081718182819381FD
:100600000C5F1F4F08C060817181882777FD80953E
:10061000982F0E5F1F4F2F76B22E97FF09C090952F
:100620008095709561957F4F8F4F9F4F2068B22EB8
:100630002AE030E0A4010E943F04A82EA81844C07C
:10064000853729F42F7EB22E2AE030E025C0F22F24
:10065000F97FBF2E8F36C1F018F4883579F0B4C019
:10066000803719F0883721F0AFC02F2F2061B22ECC
:10067000B4FE0DC08B2D8460B82E09C024FF0AC0C3
:100680009F2F9660B92E06C028E030E005C020E11B
:1006900030E002C020E132E0F801B7FE07C060811F
:1006A0007181828193810C5F1F4F06C060817181CF
:1006B00080E090E00E5F1F4FA4010E943F04A82E2F
:1006C000A818FB2DFF77BF2EB6FE0BC02B2D2E7F5B
:1006D000A51450F4B4FE0AC0B2FC08C02B2D2E7E27
:1006E00005C07A2C2B2D03C07A2C01C0752C24FF59
:1006F0000DC0FE01EA0DF11D8081803311F4297EC9
:1007000009C022FF06C07394739404C0822F8678B8
:1007100009F0739423FD13C020FF06C05A2C7314F4
:1007200018F4530C5718732C731468F4B70180E253
:1007300090E02C870E940D0473942C85F5CF7314E0
:1007400010F4371801C0312C24FF12C0B70180E328
:1007500090E02C870E940D042C8522FF17C021FFFA
:1007600003C088E590E002C088E790E0B7010CC0C4
:10077000822F867859F021FD02C080E201C08BE211
:1007800027FD8DE2B70190E00E940D04A51438F416
:10079000B70180E390E00E940D045A94F7CFAA9429
:1007A000F401EA0DF11D8081B70190E00E940D0473
:1007B000A110F5CF332009F451CEB70180E290E0CB
:1007C0000E940D043A94F6CFF7018681978102C00A
:1007D0008FEF9FEF2C96E2E10C94B904FC01059099
:1007E000615070400110D8F7809590958E0F9F1F33
:1007F0000895FB01DC0102C001900D924150504070
:10080000D8F70895FC016150704001900110D8F7AD
:10081000809590958E0F9F1F08950F931F93CF93F0
:10082000DF93182F092FEB018B8181FD03C08FEF20
:100830009FEF20C082FF10C04E815F812C813D81DF
:10084000421753077CF4E881F9819F012F5F3F4FE6
:1008500039832883108306C0E885F985812F09959F
:10086000892B29F72E813F812F5F3F4F3F832E83B6
:10087000812F902FDF91CF911F910F910895FA0151
:10088000AA27283051F1203181F1E8946F936E7FCF
:100890006E5F7F4F8F4F9F4FAF4FB1E03ED0B4E0C0
:1008A0003CD0670F781F891F9A1FA11D680F791F01
:1008B0008A1F911DA11D6A0F711D811D911DA11D12
:1008C00020D009F468943F912AE0269F1124301922
:1008D000305D3193DEF6CF010895462F4770405DBD
:1008E0004193B3E00FD0C9F7F6CF462F4F70405D6C
:1008F0004A3318F0495D31FD4052419302D0A9F7C7
:10090000EACFB4E0A6959795879577956795BA95C0
:10091000C9F700976105710508959B01AC010A2E86
:1009200006945795479537952795BA95C9F7620F5D
:10093000731F841F951FA01D08952F923F924F9201
:100940005F926F927F928F929F92AF92BF92CF925F
:10095000DF92EF92FF920F931F93CF93DF93CDB768
:10096000DEB7CA1BDB0B0FB6F894DEBF0FBECDBFE0
:1009700009942A88398848885F846E847D848C84B1
:100980009B84AA84B984C884DF80EE80FD800C81BA
:100990001B81AA81B981CE0FD11D0FB6F894DEBF9D
:0C09A0000FBECDBFED010895F894FFCF0D
:1009AC0054656D706572617475726120706F204949
:0809BC00324300253564000000
:00000001FF
