S00F0000317769726562622E7372656369
S11300000C9424010C9441010C9441010C94410181
S11300100C9441010C9441010C9441010C94410154
S11300200C9441010C9441010C9441010C94410144
S11300300C9441010C9441010C9441010C94410134
S11300400C9441010C9441010C9441010C94410124
S11300500C9441010C9441010C9441010C94410114
S11300600C9441010C944101000000000000005F69
S113007000000007000700147F147F14242A7F2A3D
S11300801223130864623649552250000503000008
S1130090001C2241000041221C00082A1C2A0808D6
S11300A0083E08080050300000080808080800301E
S11300B030000020100804023E5149453E00427FB2
S11300C0400042615149462141454B311814127F89
S11300D01027454545393C4A494930017109050312
S11300E03649494936064949291E0036360000007A
S11300F0563600000008142241141414141441222A
S11301001408000201510906324979413E7E111159
S1130110117E7F494949363E414141227F41412276
S11301201C7F494949417F090901013E414151323E
S11301307F0808087F00417F41002040413F017F44
S1130140081422417F404040407F0204027F7F0424
S113015008107F3E4141413E7F090909063E415155
S1130160215E7F09192946464949493101017F0128
S1130170013F4040403F1F2040201F7F2018207F28
S1130180631408146303047804036151494543006C
S1130190007F4141020408102041417F0000040215
S11301A00102044040404040000102040020545435
S11301B054787F48444438384444442038444448BC
S11301C07F3854545418087E090102081454543CCE
S11301D07F0804047800447D40002040443D000032
S11301E07F10284400417F40007C041804787C0878
S11301F004047838444444387C141414080814144F
S1130200187C7C080404084854545420043F444097
S1130210203C4040207C1C2040201C3C4030403C82
S113022044281028440C5050503C4464544C44001E
S11302300836410000007F0000004136080008082D
S11302402A1C08081C2A080811241FBECFEFD8E076
S1130250DEBFCDBF11E0A0E0B1E0EAE1FEE002C004
S113026005900D92A031B107D9F721E0A0E1B1E0EA
S113027001C01D92A331B207E1F70E94FB010C9467
S11302800B070C940000CF93DF93D82FC8E08D2F79
S113029081700E94AA02D69587E092E00197F1F757
S11302A000C00000C15099F7DF91CF910895CF931A
S11302B0DF93D8E0C0E0C6950E94BB028111C068FC
S11302C087E592E00197F1F700C00000D15099F75B
S11302D08C2FDF91CF9108950F931F93CF93DF93CA
S11302E0182F092F0E94DF028823D9F085E50E9488
S11302F04301C12FD02F07E010E08991182798E01F
S11303002CE8169508F412279A95D9F70E94430110
S1130310015099F7812FDF91CF911F910F910C9488
S11303204301DF91CF911F910F910895DF92EF92D6
S1130330FF920F931F93CF93DF93182FEB01E42EBB
S11303400E94DF02812F0E94430101E011E0F12CA1
S11303508FEE90E00197F1F700C000000E94BB020D
S1130360D82EEFEEF0E03197F1F700C000000E94C4
S1130370BB02EFEEF0E03197F1F700C00000DD20A2
S113038039F0882361F083E08093100180E02BC072
S11303909881882341F0812F8095892302C0888128
S11303A0812B888310C00E1103C0912B988307C042
S11303B0E01628F4812F80958923888303C08881DF
S11303C0812309F4F02E9881912381E009F480E0DF
S11303D00E94AA02110F11F4219611E00F5F01345B
S11303E009F0B6CF8F2DDF91CF911F910F91FF9020
S11303F0EF90DF900895CF93DF93CDB7DEB7AD973D
S11304000FB6F894DEBF0FBECDBF0E9406030E9454
S1130410AB030E94EE03CE0101967C01412C212CFA
S1130420512C8E01035E1F4F77E0372E3E019EE272
S1130430690E711C4801A0E8AA2E10921001422DE9
S1130440BE016A5D7F4F80EF0E949601282E809145
S11304501001811134C0FE01B696D701832D01909D
S11304600D928A95E1F7642D80E00E94C203FE019B
S1130470B6966F01D6018D916D011F928F93A1E005
S1130480B1E0BF93AF931F930F930E943A048A2D58
S1130490B4010E943F030F900F900F900F900F90A4
S11304A00F90C614D70431F7222049F05394F7E093
S11304B0EF0EF11C89E0480E94E05912BECF47E0DC
S11304C0A42E51E7C52E52E0D52E66E0E62E61E05B
S11304D0F62E1801A0E84A2E81E00E94090334E2B6
S11304E0B32E712C81E090E08C0F9D1FA79C800D92
S11304F0911D11240E941D03AC014F7055274C9D82
S113050090014D9D300D5C9D300D11243F932F9330
S113051097FD0F9624E0959587952A95E1F79F938B
S11305208F93FF92EF921F930F930E943A046B2DC7
S113053080E00E94C203842DB1010E943F037394A2
S1130540B9E0BB0E0FB6F894DEBF0FBECDBF571493
S113055048F6C2CF9FB7F894509A20E12A95F1F754
S113056081115098EFEEF0E03197F1F700C00000F0
S113057050989FBF08959FB7F894509A20E12A9508
S1130580F1F7509880E58A95F1F789B181709FBFA2
S11305909FEF489909C02AE02A95F1F700C09150CD
S11305A0C1F791E09093100181700895509A8FE7FC
S11305B097E00197F1F700C0000050980895CF9399
S11305C0CFB7F8940E94D60280EA8A95F1F78FEFAC
S11305D0489B08C095E09A95F1F700008150C1F757
S11305E082E00AC08FEF48990DC09AE09A95F1F71E
S11305F000C08150C1F781E08093100180E0CFBF3B
S1130600CF9108951092100181E0F9CF5098589835
S11306100895CF93C82F0E94DF02882361F08CECE9
S11306200E94430184E40E944301CC2321F00E94F0
S1130630BB028823E1F3CF910895CF93DF930E9407
S11306406C0180911001811115C08EEB0E94430151
S11306500E945701C82FD0E00E945701282F30E094
S1130660322F22272C0F3D1F37FF02C02E5F3F4F32
S1130670C90102C08FEF9FEFDF91CF910895CF9210
S1130680DF92EF926B01E82EF6018491E7FC808102
S1130690882339F09FEFC91AD90AE90A0E940F0486
S11306A0F3CFEF90DF90CF900895811103C043986A
S11306B0449A08954498439A08951AB8419A4098E0
S11306C00E945503429A000089B142980895CF933D
S11306D0C82F8C2F0E945D0387FDFBCFCF91089517
S11306E01F93CF93DF931F92CDB7DEB7182F862FBA
S11306F069830E9467038FEF8AB9419840986981A2
S1130700862F0E9455031BB9429A000042980F900D
S1130710DF91CF911F910895CF93DF93D82FC0918C
S11307201201C295C695C695C3708C2F0E946703AB
S11307308FEF8AB94198409ADBB98C2F0E945503F8
S1130740429A00004298809112018F5F80931201B7
S1130750DF91CF9108953A9A389A399A3B9A3C9A04
S1130760439A449A60E08FE30E94700360E080EC57
S11307700E94700361E08FE30E94700361E080ECEB
S11307800C9470031F93CF93DF93D82FC62F8093BD
S113079012016093110160E080E40E947003C86B51
S11307A060E08C2F0E94700361E080E40E9470037B
S11307B061E08C2F0E9470031D2F129516951695DB
S11307C013708D2F8F73612F80640E947003612FCB
S11307D08C2FDF91CF911F910C9470031F93CF93B3
S11307E0DF9381E090910001911180E0182F119521
S11307F0C0E06C2F80E00E94C203D0E0812F0E94F1
S11308008C03DF5FD038D1F7CF5FC83091F71092F7
S1130810120110921101DF91CF911F9108950F934E
S11308201F93CF93DF9390E0809725E0289FE0010A
S1130830299FD00D1124C859DF4F8E010B5F1F4F24
S1130840FE012196859190910001911101C080953E
S11308500E948C03C017D10799F780910001811180
S113086002C08FEF01C080E0DF91CF911F910F9103
S11308700C948C03AEE0B0E0E0E4F4E00C94E20607
S11308800D891E8986E08C831A8309838FEF9FE785
S11308909E838D83AE01475E5F4F6F89788DCE0155
S11308A001960E945C04EF81F885E00FF11F10822D
S11308B02E96E4E00C94FE06ACE0B0E0E2E6F4E050
S11308C00C94D4067C016B018A01FC011782168208
S11308D0838181FFBDC1CE0101964C01F701938153
S11308E0F60193FD859193FF81916F01882309F4AB
S11308F0ABC1853239F493FD859193FF81916F01EA
S1130900853229F4B70190E00E944406E7CF512CC8
S1130910312C20E02032A0F48B3269F030F48032A4
S113092059F0833269F420612CC08D3239F0803360
S113093039F4216026C02260246023C0286021C0CD
S113094027FD27C030ED380F3A3078F426FF06C073
S1130950FAE05F9E300D1124532E13C08AE0389EB6
S1130960300D1124332E20620CC08E3221F426FD6A
S11309706BC1206406C08C3611F4206802C088362E
S113098041F4F60193FD859193FF81916F018111EB
S1130990C1CF982F9F7D9554933028F40C5F1F4F3F
S11309A0FFE3F9830DC0833631F0833771F083356B
S11309B009F05BC022C0F801808189830E5F1F4F5C
S11309C044244394512C540115C03801F2E06F0EB5
S11309D0711CF801A080B18026FF03C0652D70E072
S11309E002C06FEF7FEFC5012C870E9439062C01EE
S11309F083012C852F77222E17C03801F2E06F0E69
S1130A00711CF801A080B18026FF03C0652D70E041
S1130A1002C06FEF7FEFC5012C870E942E062C01C8
S1130A202C852068222E830123FC1BC0832D90E09B
S1130A3048165906B0F4B70180E290E00E944406DB
S1130A403A94F4CFF50127FC859127FE81915F014B
S1130A50B70190E00E94440631103A94F1E04F1A35
S1130A6051084114510471F7E5C0843611F08936F8
S1130A7039F5F80127FF07C0608171818281938174
S1130A800C5F1F4F08C060817181882777FD8095B6
S1130A90982F0E5F1F4F2F76B22E97FF09C09095A7
S1130AA08095709561957F4F8F4F9F4F2068B22E30
S1130AB02AE030E0A4010E947606A82EA81844C0BB
S1130AC0853729F42F7EB22E2AE030E025C0F22F9C
S1130AD0F97FBF2E8F36C1F018F4883579F0B4C091
S1130AE0803719F0883721F0AFC02F2F2061B22E44
S1130AF0B4FE0DC08B2D8460B82E09C024FF0AC03B
S1130B009F2F9660B92E06C028E030E005C020E192
S1130B1030E002C020E132E0F801B7FE07C0608196
S1130B207181828193810C5F1F4F06C06081718146
S1130B3080E090E00E5F1F4FA4010E947606A82E6D
S1130B40A818FB2DFF77BF2EB6FE0BC02B2D2E7FD2
S1130B50A51450F4B4FE0AC0B2FC08C02B2D2E7E9E
S1130B6005C07A2C2B2D03C07A2C01C0752C24FFD0
S1130B700DC0FE01EA0DF11D8081803311F4297E40
S1130B8009C022FF06C07394739404C0822F867830
S1130B9009F0739423FD13C020FF06C05A2C73146C
S1130BA018F4530C5718732C731468F4B70180E2CB
S1130BB090E02C870E94440673942C85F5CF73141F
S1130BC010F4371801C0312C24FF12C0B70180E3A0
S1130BD090E02C870E9444062C8522FF17C021FF39
S1130BE003C088E590E002C088E790E0B7010CC03C
S1130BF0822F867859F021FD02C080E201C08BE289
S1130C0027FD8DE2B70190E00E944406A51438F454
S1130C10B70180E390E00E9444065A94F7CFAA9467
S1130C20F401EA0DF11D8081B70190E00E944406B1
S1130C30A110F5CF332009F451CEB70180E290E042
S1130C400E9444063A94F6CFF7018681978102C048
S1130C508FEF9FEF2C96E2E10C94F006FC010590D7
S1130C60615070400110D8F7809590958E0F9F1FAA
S1130C700895FC016150704001900110D8F78095EF
S1130C8090958E0F9F1F08950F931F93CF93DF931B
S1130C90182F092FEB018B8181FD03C08FEF9FEF8C
S1130CA020C082FF10C04E815F812C813D8142179C
S1130CB053077CF4E881F9819F012F5F3F4F39830B
S1130CC02883108306C0E885F985812F0995892B2F
S1130CD029F72E813F812F5F3F4F3F832E83812F42
S1130CE0902FDF91CF911F910F910895FA01AA27B8
S1130CF0283051F1203181F1E8946F936E7F6E5F5B
S1130D007F4F8F4F9F4FAF4FB1E03ED0B4E03CD008
S1130D10670F781F891F9A1FA11D680F791F8A1FEB
S1130D20911DA11D6A0F711D811D911DA11D20D052
S1130D3009F468943F912AE0269F11243019305D0C
S1130D403193DEF6CF010895462F4770405D4193FD
S1130D50B3E00FD0C9F7F6CF462F4F70405D4A334A
S1130D6018F0495D31FD4052419302D0A9F7EACF12
S1130D70B4E0A6959795879577956795BA95C9F741
S1130D8000976105710508959B01AC010A2E069434
S1130D905795479537952795BA95C9F7620F731FED
S1130DA0841F951FA01D08952F923F924F925F922A
S1130DB06F927F928F929F92AF92BF92CF92DF9267
S1130DC0EF92FF920F931F93CF93DF93CDB7DEB7CC
S1130DD0CA1BDB0B0FB6F894DEBF0FBECDBF099460
S1130DE02A88398848885F846E847D848C849B84B7
S1130DF0AA84B984C884DF80EE80FD800C811B81C5
S1130E00AA81B981CE0FD11D0FB6F894DEBF0FBEF3
S10D0E10CDBFED010895F894FFCF63
S1130E1A012530325800252B3033692E25316900DB
S9030000FC
