:100000000C9434000C9446000C9446000C9446006A
:100010000C9446000C9446000C9446000C94460048
:100020000C9446000C9446000C9446000C94460038
:100030000C9446000C9446000C9446000C94460028
:100040000C9446000C9446000C9446000C94460018
:100050000C9446000C9446000C9446000C94460008
:100060000C9446000C94460011241FBECFEFD8E03C
:10007000DEBFCDBF21E0A0E0B1E001C01D92A13004
:10008000B207E1F70E9425010C946A010C9400006C
:100090008091BC0087FFFCCF089584EA8093BC0068
:1000A0000E9448008091B900887F883041F080919B
:1000B000B900887F803119F081E0809300010895B4
:1000C000CF9380FD02C0C8E101C0C0E48093BB00B3
:1000D00084E88093BC000E9448002091B900287FEA
:1000E00030E08C2F90E02817390721F084E08093CE
:1000F000000102C010920001CF9108958093BB00CF
:1001000084E88093BC000E9448008091B900887FF9
:10011000883219F084E080930001089584E8809388
:10012000BC000E9448008091B900887F883519F092
:1001300083E0809300018091BB0008959C0140E022
:1001400050E060E071E782E090E00E9448012051B9
:10015000310941095109569547953795279590E002
:100160002F3F310539F030F09F5F36952795369552
:100170002795F6CF8091B9008370892B8093B900C1
:100180002093B800089584E48093BC0084EF91E04C
:100190000C949E00CF93DF931F92CDB7DEB7898377
:1001A0000E944D0089810F90DF91CF910C946000E7
:1001B000CF93C82F82EA0E94CA008C2F0E947E0033
:1001C00083EA0E94CA000E948E0094E99093BC00CA
:1001D000CF91089582E00E94D8008095881F8827DB
:1001E000881F0895CF93DF93EC0182EA0E94CA0032
:1001F00082E00E947E0088810E947E0089810E94A8
:100200007E008A810E947E0084E98093BC00DF9199
:10021000CF910895CF93DF93EC0182EA0E94CA0048
:1002200085E00E947E0088810E947E0089810E9474
:100230007E008A810E947E008B810E947E0084E97C
:100240008093BC00DF91CF910895CF93DF93CDB71A
:10025000DEB727970FB6F894DEBF0FBECDBF0E9462
:10026000C30080E18C8381E08B8389E189831D82D7
:100270001E8283E28F830E94EA008111FFCFCE01AC
:1002800005960E94F200CE0101960E940A01F6CF67
:10029000A1E21A2EAA1BBB1BFD010DC0AA1FBB1F8A
:1002A000EE1FFF1FA217B307E407F50720F0A21BFC
:1002B000B30BE40BF50B661F771F881F991F1A9469
:1002C00069F760957095809590959B01AC01BD0193
:0802D000CF010895F894FFCF5F
:00000001FF
