S01400004C4344416C66612D4D656E752E7372656307
S11300000C94CC000C94E9000C94E9000C94E900E5
S11300100C94E9000C94E9000C94E9000C94E900B8
S11300200C94E9000C94E9000C94E9000C94E900A8
S11300300C94E9000C94E9000C94E9000C94E90098
S11300400C9447010C94E9000C94E9000C94E90029
S11300500C94E9000C94E9000C94E9000C94E90078
S11300600C94E9000C94E9003E3E3E0020003E0062
S1130070506F646D656E7520423200506F646D651B
S11300806E7520423100506F646D656E752041338A
S113009000506F646D656E75204131004D656E755D
S11300A02034004D656E752033004D656E7520312A
S11300B0004D656E753100C10000008E018401C7DA
S11300C0004D656E753200D100C6038E010000D765
S11300D0004D656E753300E100D7038E010000E723
S11300E0004D656E753400F10000008E01000000C3
S11300F0004D656E753500506F646D656E752041F9
S113010031000C01000084017A011701506F646D05
S1130110656E75204132002101F903840100002C31
S113012001506F646D656E7520413300360185039F
S11301308401000000003C7A20706F77726F746550
S11301406D3E00506F646D656E752042310058013C
S11301501B047A0100006301506F646D656E7520A5
S11301604232006D0185037A01000000003C7A20D0
S1130170706F77726F74656D3E0043010A048401E9
S113018000004E01F700E8038E0100000201B100F7
S1130190B50300000000B70011241FBECFEFD8E064
S11301A0DEBFCDBF11E0A0E0B1E0ECEAF8E002C0B0
S11301B005900D92A230B107D9F721E0A2E0B1E099
S11301C001C01D92AC30B207E1F70E947C020C948E
S11301D054040C94000089B120910601922F9827B1
S11301E095FF0DC090910301911109C098EC909373
S11301F00301982F90722F7D922B9093060190917A
S11302000601292F282726FF0BC020910401211164
S113021007C028EC20930401982B90749093060156
S113022020910601922F982797FF0DC09091050108
S1130230911109C098EC90930501982F90782F772D
S1130240922B90930601E3E0F1E09081992311F061
S113025091509083319691E0E630F907B1F785FF2C
S113026002C090E001C093E086FD02C081E09827BF
S113027020910201291B20FF09C090930201809163
S1130280070181502270820F8093070108951F9205
S11302900F920FB60F9211242F933F934F935F93B6
S11302A06F937F938F939F93AF93BF93EF93FF933A
S11302B00E94EB00FF91EF91BF91AF919F918F91BD
S11302C07F916F915F914F913F912F910F900FBE4E
S11302D00F901F901895809106018095881F88279C
S11302E0881F08950E94EB0080910701982F937056
S11302F0909307018595859508955D9A5E9A5F9A16
S113030008955B98662311F05C9A01C05C9898B1DB
S1130310907F982B98B95A9A82E08A95F1F700C099
S11303205A9808955B9A97B1907F97B9882311F0F2
S11303305C9A01C05C985A9A82E08A95F1F700C0F1
S113034086B15A9897B19F6097B95B988F7008955A
S1130350CF93DF93C82FD62F82958F700E9481018F
S11303606D2F8C2F8F70DF91CF910C948101CF93DF
S1130370DF93C82F0E949201D82FD295D07F8C2F63
S11303800E9492018D2BDF91CF91089580E00E940D
S1130390B70187FDFBCF0895549A539A529A87B1B7
S11303A08F6087B98FE59AEE0197F1F700C00000DE
S11303B060E083E00E9481018FE090E40197F1F70F
S11303C000C0000060E083E00E9481018FE891E0BA
S11303D00197F1F700C0000060E083E00E94810112
S11303E095EC9A95F1F7000060E082E00E948101AB
S11303F080E00E94C60160E088E20E94A80180E0DB
S11304000E94C60160E088E00E94A80180E00C948C
S1130410C6010E94CC0160E081E00E94A80181E055
S11304200E94C60160E086E00E94A80181E00E946B
S1130430C60160E08CE00E94A80181E00C94C60132
S1130440CF93C82F80910901882399F0CA3099F07D
S113045080910801811120C081E00E94C60160E002
S113046081E00E94A80181E00E94C6011092090166
S113047013C0CA3089F480910801811106C081E05B
S11304808093080160E080EC09C081E08093090159
S113049010920801CF91089561E08C2F0E94A80169
S11304A081E0CF910C94C601CF92DF92EF926B0161
S11304B0E82EF6018491E7FC8081882339F00E94BC
S11304C020028FEFC81AD80AE80AF3CFEF90DF9022
S11304D0CF90089590E4699F800D112460E08068B6
S11304E00E94A80181E00C94C60160E081E00E94B2
S11304F0A80180E00C94C6010E947D010E940902BB
S11305000E94BA027894D0E00E947201C82F181693
S11305101CF40E945E03CF5FC7FD0E9434030E9457
S11305206B018D1789F30E946B01D82F882361F327
S11305300E949503E9CF209100013091010180E0F0
S11305402115310531F0F9013896259135918F5FE8
S1130550F7CF0895282F8091000190910101009711
S113056041F0222331F0FC01389685919591215078
S1130570F6CF08952F923F924F926F927F928F926F
S1130580AF92BF92CF92DF92EF920F931F93CF93CC
S1130590DF9380910A010E94AA02EC010E949B024F
S11305A0A82E0E94750200E010E0B12C8CE690E0C9
S11305B06C01E12C8EE690E03C01812C88E690E011
S11305C01C01412C602F80E00E946A0220910B01E3
S11305D0332727FD309580910A01A801480F511D4A
S11305E087FD5A95CA01B5010E942C0428173907C2
S11305F019F4882DB30102C08E2DB6010E94540255
S1130600FE016591759180E00E945402FE013696C8
S113061085919591892B21F0842DB1010E9454027A
S1130620FE013896C591D591209741F40E949B0212
S1130630833050F0C0910001D09101010F5F1F4F32
S11306400230110509F0BECFDF91CF911F910F91B8
S1130650EF90DF90CF90BF90AF908F907F906F908E
S11306604F903F902F9008950E949B0290910B0110
S11306709F5F833060F020910A01392F321B92175B
S11306800CF4380F32301CF02F5F20930A01282F0E
S113069030E0892F992787FD9095B9010E942C0499
S11306A080930B0180910A01992787FD9095B901E8
S11306B00E942C0480930A010C94BA02CF93809177
S11306C00B0190910A0118164CF42FEF280F89138F
S11306D002C020930A0120930B0114C091110DC094
S11306E00E949B02CFEFC80FC0930B010E949B0294
S11306F0833040F0C0930A0105C00E949B028150E0
S113070080930B01CF910C94BA0210920A011092BB
S11307100B01E0910001F0910101349685919591CE
S113072090930101809300010895CF93DF9380910A
S11307300B010E94AA02FC013696C591D59132970D
S113074034970590F491E02D309709F0099520979E
S113075041F0D0930101C093000110920B0110925B
S11307600A01DF91CF910C94BA020E9475026AEAE1
S113077070E080E00E9454022FEF87EA91E6215056
S113078080409040E1F700C0000008950E94750287
S113079063EA70E080E00E9454022FEF87EA91E65A
S11307A0215080409040E1F700C0000008950E946D
S11307B075026CE970E080E00E9454022FEF87EA32
S11307C091E6215080409040E1F700C00000089578
S11307D00E94750261E970E080E00E9454022FEFEC
S11307E087EA91E6215080409040E1F700C0000084
S11307F008950E94750266E870E080E00E94540249
S11308002FEF87EA91E6215080409040E1F700C045
S1130810000008950E9475026BE770E080E00E947A
S113082054022FEF87EA91E6215080409040E1F78F
S113083000C0000008950E94750260E770E080E047
S11308400E9454022FEF87EA91E6215080409040A5
S1130850E1F700C00000089597FB072E16F40094FA
S113086007D077FD09D00E94400407FC05D03EF470
S1130870909581959F4F0895709561957F4F089548
S1130880AA1BBB1B51E107C0AA1FBB1FA617B707B2
S113089010F0A61BB70B881F991F5A95A9F78095CE
S10F08A09095BC01CD010895F894FFCFA1
S10508AC8E01B7
S9030000FC
