:100000002BC0000030C000002EC000002CC000003B
:100010002AC0000028C0000026C0000024C0000044
:1000200022C0000020C000001EC000001CC0000054
:100030001AC0000018C0000018C0000011E0A0E0C5
:10004000B1E0E4EAF0E000E00BBF02C007900D92DF
:10005000A230B107D9F714C011248FEF90E19EBFF1
:100060008DBF1FBEEBCFF894FFCF1F920F920FB63C
:100070000F921124C09A0F900FBE0F901F901895E9
:100080008FE99FE00197F1F700C000008091000127
:10009000909101010196909301018093000180E00D
:0400A00090E008954F
:0200A4000A0050
:00000001FF
