:100000000C943A000C9457000C9457000C94570031
:100010000C9457000C9457000C9457000C94570004
:100020000C9457000C9457000C9457000C945700F4
:100030000C9457000C9457000C9457000C945700E4
:100040000C9457000C9457000C9457000C945700D4
:100050000C9457000C9457000C9457000C945700C4
:100060000C9457000C945700C0F9A4B0999282F8F0
:100070008090BF0011241FBECFEFD8E0DEBFCDBF00
:1000800011E0A0E0B1E0ECE4F1E002C005900D92D7
:10009000A030B107D9F721E0A0E0B1E001C01D9286
:1000A000A230B207E1F70E948C000C94A4000C94DB
:1000B0000000282F2F7730E02B3031052CF4F90188
:1000C000E859FF4F949101C09FEF87FD9F779BB93F
:1000D0000895189B02C080E001C083E01F9902C010
:1000E00091E0892790910001981B90FF09C08093AF
:1000F00000018091010181509270890F809301016C
:1001000008950E94690080910101982F9370909347
:1001100001018595859508958FEF8AB985B181682C
:1001200085B9C0E08C2F0E9459000E9481008F3F4A
:1001300019F0813029F0F6CFCC23A1F3C150F2CFD2
:0C014000C93080F7CF5FEECFF894FFCFFE
:00000001FF
