:100000000C9430000C944D000C944D000C944D0059
:100010000C944D000C944D000C944D000C944D002C
:100020000C944D000C944D000C944D000C944D001C
:100030000C944D000C944D000C944D000C944D000C
:100040000C944D000C944D000C944D000C944D00FC
:100050000C944D004D414C55544B41203B2A00001F
:1000600011241FBECFE5D8E0DEBFCDBF10E0A0E673
:10007000B0E0EAE7F2E002C005900D92A036B107C9
:10008000D9F720E0A0E6B0E001C01D92A036B2078B
:10009000E1F70E9421010C943B010C940000D698DA
:1000A000D598D498D398D99ADA9A89B383FB8827BC
:1000B00080F9CC998260CD998460CE9988608295D0
:1000C000807FDA98DA9A99B393FB992790F9CC99C3
:1000D0009260CD999460CE999860DA98892B0895B2
:1000E000D8980E944F000895D69AD59AD49AD39A58
:1000F000D998DA9A982F92959F7090FF02C0DB9A58
:1001000001C0DB9891FF02C0DC9A01C0DC9892FF2D
:1001100002C0DD9A01C0DD98987011F0DE9A01C02E
:10012000DE98DA98DA9A80FF02C0DB9A01C0DB9889
:1001300081FF02C0DC9A01C0DC9882FF02C0DD9A18
:1001400001C0DD9883FF02C0DE9A01C0DE98DA9814
:100150000E9470008823E4F30895D8980E947400E8
:100160000895D89A0E947400089590E8980F9830E6
:1001700008F487700E94B1000895CF93DF93EC01DB
:100180002196FC018491882339F00E94B500FE017C
:10019000849121968111F9CFDF91CF91089581E06B
:1001A0000E94AD000895D69AD59AD49AD39AD09A3F
:1001B000D29AD19AD89ADA9AD99A8FEF91EA01977E
:1001C000F1F700C00000DA98D898D998DA9ADB9A4B
:1001D000DC9ADD98DE98DA9887E49CE20197F1F7E3
:1001E00000C0DA9ADB9ADC9ADD98DE98DA9884E12E
:1001F00091E00197F1F70000DA9ADB9ADC9ADD983A
:10020000DE98DA9884E191E00197F1F70000DA9A3C
:10021000DB98DC9ADD98DE98DA9884E191E001972A
:10022000F1F7000088E20E94AD0088E00E94AD0076
:100230008CE00E94AD0086E00E94AD000E94CF00DD
:100240000895D79ADF9AA798AF9A0E94D3009F99F2
:10025000FECF84E590E00E94BD002FEF3FE389E1EF
:1002600091E02150304080409040D9F700C000001C
:0A0270000E94CF00ECCFF894FFCFFE
:00000001FF
