:100000000C9434000C9446000C9446000C940E01A1
:100010000C9446000C9446000C9446000C94460048
:100020000C9446000C9446000C9446000C94460038
:100030000C9446000C9446000C9446000C94460028
:100040000C9446000C94D0000C9446000C9446008E
:100050000C9446000C9448000C9446000C94460006
:100060000C9446000C94460011241FBECFEFD8E03C
:10007000DEBFCDBF21E0A0E0B1E001C01D92A13103
:10008000B207E1F70E942A010C9472010C9400005F
:1000900078941F920F920FB60F9211242F933F93D3
:1000A0008F939F93AF93BF93EF93FF93209178002B
:1000B000309179008091020190910301A091040197
:1000C000B0910501820F931FA11DB11D8093020104
:1000D00090930301A0930401B093050120910101C5
:1000E0002F5F20930101203821F52091000130E09D
:1000F000F901EE0FFF1FEE0FFF1FE85FFE4F808339
:100100009183A283B3831092020110920301109293
:1001100004011092050110920101C901019681703C
:1001200099278093000190917C00907F982B909369
:100130007C0080917A00806480937A00FF91EF9137
:10014000BF91AF919F918F913F912F910F900FBED3
:100150000F901F90189580EC80937C00EAE7F0E008
:100160008FE8808380818064808308959FB7F894AE
:1001700024E0829FF0011124E85FFE4F208131814D
:10018000428153819FBFA8EFBAE20E94440121E15E
:1001900096958795779567952A95D1F7CB01089520
:1001A0001F920F920FB60F9211242F933F934F93EC
:1001B0005F936F937F938F939F93AF93BF93EF93CF
:1001C000FF9380911001811107C08EB50E94B60087
:1001D0009093070180930601E0911001F0E0EA5F3F
:1001E000FE4F80818EBD8091100190E0019663E00A
:1001F00070E00E94300180931001FF91EF91BF9158
:10020000AF919F918F917F916F915F914F913F91AE
:100210002F910F900FBE0F901F9018951F920F9265
:100220000FB60F921124109210010F900FBE0F9075
:100230001F901895249A80EC8CBD8DB58EB5EBE699
:10024000F0E0808184608083E8E6F0E08081816076
:10025000808308950E941A0178940E94AB00FFCF1A
:1002600097FB072E16F4009407D077FD09D00E9463
:100270004F0107FC05D03EF4909581959F4F08955E
:10028000709561957F4F08950E946301A59F900D21
:10029000B49F900DA49F800D911D11240895AA1B59
:1002A000BB1B51E107C0AA1FBB1FA617B70710F061
:1002B000A61BB70B881F991F5A95A9F78095909593
:1002C000BC01CD010895A29FB001B39FC001A39FBF
:1002D000700D811D1124911DB29F700D811D11247F
:0802E000911D0895F894FFCF71
:00000001FF
