:100000000C9434000C9449000C9449000C94490061
:100010000C9449000C9449000C9449000C9449003C
:100020000C9449000C9449000C9449000C9449002C
:100030000C9449000C9455000C9449000C94490010
:100040000C9449000C9449000C9449000C9449000C
:100050000C9449000C9449000C9449000C944900FC
:100060000C9449000C94490011241FBECFEFD8E036
:10007000DEBFCDBF11E0A0E0B1E0E6EEF0E002C0EF
:1000800005900D92A230B107D9F70E946D000C9433
:1000900071000C94000081E080936F0084E08093F5
:1000A000810084B1866084B908951F920F920FB6C3
:1000B0000F9211248F939F939091000186E09827CF
:1000C0009093000185B1897F892B85B99F918F918C
:1000D0000F900FBE0F901F9018950E944B007894C0
:0600E000FFCFF894FFCFF2
:0200E600020016
:00000001FF
