:1000000012C021C020C01FC01EC01DC01CC01BC00C
:1000100027C019C018C017C016C015C014C013C01F
:1000200012C011C010C011241FBECFE5D1E0DEBF49
:10003000CDBF20E0A0E6B0E001C01D92A336B2071C
:10004000E1F725D037C0DCCFB99ABA9A08958FB9B5
:1000500080E48EB98BE18DB9769BFDCF8FB1089589
:100060001F920F920FB60F9211248F938FB180932E
:10007000610080E48EB9809160008FB98FEF80932A
:1000800062008F910F900FBE0F901F901895D89A15
:10009000D09ADADFC0E02FE38DE093E0215080407A
:1000A0009040E1F700C00000D8988C2FD0DFD89A9C
:0800B000C095F1CFF894FFCFD9
:00000001FF
