S0180000456E6B6F6465722D4465626F756E63652E73726563F2
S11300000C943A000C9457000C9457000C9457002D
S11300100C9457000C9457000C9457000C94570000
S11300200C9457000C9457000C9457000C945700F0
S11300300C9457000C9457000C9457000C945700E0
S11300400C9457000C9457000C9457000C945700D0
S11300500C9457000C9457000C9457000C945700C0
S11300600C9457000C945700C0F9A4B0999282F8EC
S11300708090BF0011241FBECFEFD8E0DEBFCDBFFC
S113008011E0A0E0B1E0E8ECF1E002C005900D92CF
S1130090A030B107D9F721E0A0E0B1E001C01D9282
S11300A0A530B207E1F70E94CA000C94E2000C9458
S11300B00000282F2F7730E02B3031052CF4F90184
S11300C0E859FF4F949101C09FEF87FD9F779BB93B
S11300D0089583B190910301292F282720FF0BC095
S11300E020910101211107C028EC2093010180FB1C
S11300F090F99093030190910301292F282727FF5A
S11301000CC020910201211108C028EC20930201A7
S113011080789F77892B8093030180910101882344
S113012029F081508093010181E001C080E0909129
S11301300201992321F091509093020102C0882377
S113014031F08FE99FE00197F1F700C00000189BA0
S113015002C080E001C083E01F9902C091E08927BA
S113016090910001981B90FF09C080930001809139
S1130170040181509270890F8093040108950E94B4
S1130180690080910401982F9370909304018595E0
S1130190859508958FEF8AB985B1816885B9C0E0E6
S11301A08C2F0E9459000E94BF008F3F19F08130AC
S11301B029F0F6CFCC23A1F3C150F2CFC93080F798
S10B01C0CF5FEECFF894FFCFEE
S9030000FC
