S01200005472616365706F696E742E73726563F9
S11300000C9434000C943E000C943E000C943E007E
S11300100C943E000C943E000C943E000C943E0064
S11300200C943E000C943E000C943E000C943E0054
S11300300C943E000C943E000C943E000C943E0044
S11300400C943E000C943E000C943E000C943E0034
S11300500C943E000C943E000C943E000C943E0024
S11300600C943E000C943E0011241FBECFEFD8E048
S1130070DEBFCDBF0E9440000C9479000C940000B8
S1130080CF93DF9300D0CDB7DEB72AE030E089818B
S11300909A810B969A83898381E090E049815A8101
S11300A0480F591F5A83498301968A309105B1F745
S11300B0215031092115310551F781E090E0298162
S11300C03A81280F391F3A83298301968A30910592
S11300D0B1F787EE93E029813A812F5F3F4F3A834E
S11300E0298301970097B9F784E590E09A8389837F
S10900F0FFCFF894FFCFDE
S9030000FC
